:020000040800F2
:10000000000003209D2A00088D280008952800087C
:100010009D280008A5280008AD2800080000000061
:10002000000000000000000000000000B5280008EB
:10003000C328000800000000D1280008DF280008BD
:10004000ED2A0008ED2A0008ED2A0008ED2A000834
:10005000ED2A0008ED2A0008ED2A0008ED2A000824
:10006000ED2A0008ED2A0008ED2A0008ED2A000814
:10007000ED2A0008ED2A0008ED2A0008ED2A000804
:10008000ED2A0008ED2A0008ED2A0008ED2A0008F4
:10009000ED2A0008ED2A0008ED2A0008ED2A0008E4
:1000A000ED2A0008ED2A0008ED2A0008ED2A0008D4
:1000B000ED2A0008ED2A0008ED2A0008ED2A0008C4
:1000C000ED2A0008ED2A0008ED2A0008ED2A0008B4
:1000D000ED2A0008ED2A0008ED2A0008ED2A0008A4
:1000E000ED2A0008ED2A0008ED2A0008ED2A000894
:1000F000ED2A0008ED2A0008ED2A0008ED2A000884
:10010000ED2A0008ED2A0008ED2A0008ED2A000873
:10011000ED2A0008ED2A0008ED2A0008ED2A000863
:10012000ED2A0008ED2A0008ED2A0008ED2A000853
:10013000ED2A0008ED2A0008ED2A0008ED2A000843
:10014000ED2A0008ED2A0008ED2A0008ED2A000833
:10015000ED2A0008ED2A0008ED2A0008ED2A000823
:10016000ED2A0008ED2A0008ED2A0008ED2A000813
:10017000ED2A0008ED2A0008ED2A00080000000022
:10018000ED2A0008ED2A0008ED2A0008ED2A0008F3
:10019000ED2A0008ED2A0008ED2A0008ED2A0008E3
:0C01A000ED2A0008ED2A0008ED2A0008F6
:1001B00010B5054C237833B9044B13B10448AFF3A1
:1001C00000800123237010BD2002002000000000E9
:1001D0008CBD000808B5034B1BB103490348AFF3BE
:1001E000008008BD00000000240200208CBD000833
:1001F00001F0FF01102A2BDB10F0070F08D010F8D8
:10020000013B013A8B422DD010F0070F42B3F6D1DB
:10021000F0B441EA012141EA014122F007047FF0F4
:1002200000070023F0E80256083C85EA010586EA4B
:10023000010685FA47F5A3FA87F586FA47F6A5FA87
:1002400087F68EB9EED1F0BC01F0FF0102F0070293
:1002500032B110F8013B013A83EA010313B1F8D13E
:100260000020704701387047002D06BF354603381F
:10027000073815F0010F07D1013015F4807F02BF58
:10028000013015F4C03F0130F0BC0138704700BFA9
:10029000034613F8012B002AFBD1181A01387047C6
:1002A00081F0004102E000BF83F0004330B54FEA27
:1002B00041044FEA430594EA050F08BF90EA020F94
:1002C0001FBF54EA000C55EA020C7FEA645C7FEA27
:1002D000655C00F0E2804FEA5454D4EB5555B8BF4A
:1002E0006D420CDD2C4480EA020281EA030382EABB
:1002F000000083EA010180EA020281EA0303362D4D
:1003000088BF30BD11F0004F4FEA01314FF4801C1F
:100310004CEA113102D0404261EB410113F0004F31
:100320004FEA03334CEA133302D0524263EB4303E8
:1003300094EA050F00F0A780A4F10104D5F1200E86
:100340000DDB02FA0EFC22FA05F2801841F10001E1
:1003500003FA0EF2801843FA05F359410EE0A5F1B5
:1003600020050EF1200E012A03FA0EFC28BF4CF0E6
:10037000020C43FA05F3C01851EBE37101F000459C
:1003800007D54FF0000EDCF1000C7EEB00006EEBA9
:100390000101B1F5801F1BD3B1F5001F0CD3490833
:1003A0005FEA30004FEA3C0C04F101044FEA44528A
:1003B00012F5800F80F09A80BCF1004F08BF5FEA11
:1003C000500C50F1000041EB045141EA050130BDF1
:1003D0005FEA4C0C404141EB0101013C28BFB1F503
:1003E000801FE9D291F0000F04BF01460020B1FA4E
:1003F00081F308BF2033A3F10B03B3F120020CDA21
:100400000C3208DD02F1140CC2F10C0201FA0CF0FE
:1004100021FA02F10CE002F11402D8BFC2F1200C63
:1004200001FA02F120FA0CFCDCBF41EA0C01904019
:10043000E41AA2BF01EB0451294330BD6FEA040462
:100440001F3C1CDA0C340EDC04F11404C4F120024D
:1004500020FA04F001FA02F340EA030021FA04F35F
:1004600045EA030130BDC4F10C04C4F1200220FAB6
:1004700002F001FA04F340EA0300294630BD21FAF4
:1004800004F0294630BD94F0000F83F4801306BFBA
:1004900081F480110134013D4EE77FEA645C18BFAE
:1004A0007FEA655C29D094EA050F08BF90EA020F45
:1004B00005D054EA000C04BF1946104630BD91EA3D
:1004C000030F1EBF0021002030BD5FEA545C05D140
:1004D0004000494128BF41F0004130BD14F580047F
:1004E0003CBF01F5801130BD01F0004545F0FE41F3
:1004F00041F470014FF0000030BD7FEA645C1ABF28
:10050000194610467FEA655C1CBF0B46024650EA5E
:10051000013406BF52EA033591EA030F41F400218A
:1005200030BD00BF90F0000F04BF0021704730B510
:100530004FF4806404F132044FF000054FF00001E5
:1005400050E700BF90F0000F04BF0021704730B5A6
:100550004FF4806404F1320410F0004548BF40427B
:100560004FF000013EE700BF42004FEAE2014FEAD0
:1005700031014FEA02701FBF12F07F4393F07F4FAB
:1005800081F06051704732F07F4208BF704793F0AE
:100590007F4F04BF41F40021704730B54FF46074C1
:1005A00001F0004521F000411CE700BF50EA0102C4
:1005B00008BF704730B54FF000050AE050EA01026D
:1005C00008BF704730B511F0004502D5404261EBDD
:1005D00041014FF4806404F132045FEA915C3FF41E
:1005E000D8AE4FF003025FEADC0C18BF03325FEABB
:1005F000DC0C18BF033202EBDC02C2F1200300FA6C
:1006000003FC20FA02F001FA03FE40EA0E0021FA90
:1006100002F11444BDE600BF70B54FF0FF0C4CF47E
:10062000E06C1CEA11541DBF1CEA135594EA0C0F30
:1006300095EA0C0F00F0DEF82C4481EA030621EA6B
:100640004C5123EA4C5350EA013518BF52EA0335A6
:1006500041F4801143F4801338D0A0FB02CE4FF058
:100660000005E1FB02E506F00042E0FB03E54FF088
:100670000006E1FB03569CF0000F18BF4EF0010E80
:10068000A4F1FF04B6F5007F64F5407404D25FEA7C
:100690004E0E6D4146EB060642EAC62141EA55512F
:1006A0004FEAC52040EA5E504FEACE2EB4F1FD0C71
:1006B00088BFBCF5E06F1ED8BEF1004F08BF5FEAEF
:1006C000500E50F1000041EB045170BD06F00046A1
:1006D00046EA010140EA020081EA0301B4EB5C044E
:1006E000C2BFD4EB0C0541EA045170BD41F4801146
:1006F0004FF0000E013C00F3AB8014F1360FDEBF6B
:10070000002001F0004170BDC4F10004203C35DA46
:100710000C341BDC04F11404C4F1200500FA05F3C9
:1007200020FA04F001FA05F240EA020001F000426A
:1007300021F0004110EBD37021FA04F642EB0601E0
:100740005EEA430E08BF20EAD37070BDC4F10C040A
:10075000C4F1200500FA04F320FA05F001FA04F2CE
:1007600040EA020001F0004110EBD37041F10001BA
:100770005EEA430E08BF20EAD37070BDC4F12005C5
:1007800000FA05F24EEA020E20FA04F301FA05F22D
:1007900043EA020321FA04F001F0004121FA04F2D5
:1007A00020EA020000EBD3705EEA430E08BF20EAA5
:1007B000D37070BD94F0000F0FD101F000464000DF
:1007C00041EB010111F4801F08BF013CF7D041EA61
:1007D000060195F0000F18BF704703F00046520065
:1007E00043EB030313F4801F08BF013DF7D043EA36
:1007F0000603704794EA0C0F0CEA135518BF95EAEC
:100800000C0F0CD050EA410618BF52EA4306D1D172
:1008100081EA030101F000414FF0000070BD50EA91
:10082000410606BF1046194652EA430619D094EA1B
:100830000C0F02D150EA013613D195EA0C0F05D105
:1008400052EA03361CBF104619460AD181EA030159
:1008500001F0004141F0FE4141F470014FF0000011
:1008600070BD41F0FE4141F4780170BD70B54FF0AC
:10087000FF0C4CF4E06C1CEA11541DBF1CEA13552C
:1008800094EA0C0F95EA0C0F00F0A7F8A4EB05040E
:1008900081EA030E52EA03354FEA013100F0888005
:1008A0004FEA03334FF0805545EA131343EA1263CE
:1008B0004FEA022245EA111545EA10654FEA002683
:1008C0000EF000419D4208BF964244F1FD0404F53C
:1008D000407402D25B084FEA3202B61A65EB030598
:1008E0005B084FEA32024FF480104FF4002CB6EB55
:1008F000020E75EB030E22BFB61A754640EA0C00D5
:100900005B084FEA3202B6EB020E75EB030E22BF14
:10091000B61A754640EA5C005B084FEA3202B6EB55
:10092000020E75EB030E22BFB61A754640EA9C0014
:100930005B084FEA3202B6EB020E75EB030E22BFE4
:10094000B61A754640EADC0055EA060E18D04FEAA2
:10095000051545EA16754FEA06164FEAC30343EA42
:1009600052734FEAC2025FEA1C1CC0D111F4801F0F
:100970000BD141EA00014FF000004FF0004CB6E708
:1009800011F4801F04BF01430020B4F1FD0C88BFA7
:10099000BCF5E06F3FF6AFAEB5EB030C04BFB6EBB2
:1009A000020C5FEA500C50F1000041EB045170BDA5
:1009B0000EF0004E4EEA113114EB5C04C2BFD4EBD2
:1009C0000C0541EA045170BD41F480114FF0000E56
:1009D000013C90E645EA060E8DE60CEA135594EAD2
:1009E0000C0F08BF95EA0C0F3FF43BAF94EA0C0FD5
:1009F0000AD150EA01347FF434AF95EA0C0F7FF44A
:100A000025AF104619462CE795EA0C0F06D152EA9D
:100A100003353FF4FDAE1046194622E750EA410681
:100A200018BF52EA43067FF4C5AE50EA41047FF492
:100A30000DAF52EA43057FF4EBAE12E74FF0FF3CF7
:100A400006E000BF4FF0010C02E000BF4FF0010CC8
:100A50004DF804CD4FEA410C7FEA6C5C4FEA430C41
:100A600018BF7FEA6C5C1BD001B050EA410C0CBF90
:100A700052EA430C91EA030F02BF90EA020F0020F2
:100A8000704710F1000F91EA030F58BF994208BF59
:100A900090422CBFD8176FEAE37040F00100704716
:100AA0004FEA410C7FEA6C5C02D150EA013C07D16D
:100AB0004FEA430C7FEA6C5CD6D152EA033CD3D0B8
:100AC0005DF8040B704700BF8446104662468C46B2
:100AD0001946634600E000BF01B5FFF7B7FF0028E5
:100AE00048BF10F1000F01BD4DF808EDFFF7F4FF0E
:100AF0000CBF012000205DF808FB00BF4DF808ED99
:100B0000FFF7EAFF34BF012000205DF808FB00BFBB
:100B10004DF808EDFFF7E0FF94BF012000205DF8DD
:100B200008FB00BF4DF808EDFFF7CEFF94BF012092
:100B300000205DF808FB00BF4DF808EDFFF7C4FF8B
:100B400034BF012000205DF808FB00BF4FEA410CD4
:100B50007FEA6C5C02D150EA013C0AD14FEA430CB7
:100B60007FEA6C5C02D152EA033C02D14FF00000F4
:100B700070474FF0010070474FEA410212F5001232
:100B800015D211D56FF47873B3EB625212D94FEAD4
:100B9000C12343F0004343EA505311F0004F23FABE
:100BA00002F018BF404270474FF00000704750EA13
:100BB000013005D111F0004008BF6FF000407047D0
:100BC0004FF00000704700BF4A0011D212F500122A
:100BD00011D20DD56FF47873B3EB62520ED44FEA95
:100BE000C12343F0004343EA505323FA02F0704715
:100BF0004FF00000704750EA013002D14FF0FF3053
:100C000070474FF0000070474FEA4102B2F1E043F5
:100C100024BFB3F5001CDCF1FE5C0DD901F0004CE3
:100C20004FEAC0024CEA5070B2F1004F40EB830033
:100C300008BF20F00100704711F0804F21D113F15F
:100C40003872BCBF01F00040704741F480114FEA98
:100C50005252C2F11802C2F1200C10FA0CF320FA21
:100C600002F018BF40F001004FEAC1234FEAD3233E
:100C700003FA0CFC40EA0C0023FA02F34FEA4303A8
:100C8000CCE77FEA625307D150EA01331EBF4FF031
:100C9000FE4040F44000704701F0004040F0FE404C
:100CA00040F40000704700BF53B94AB9002908BF9B
:100CB00000281CBF4FF0FF314FF0FF3000F0A0B90B
:100CC000ADF1080C6DE904CE00F03CF8DDF804E06D
:100CD000DDE9022304B0704738B500220023044642
:100CE0000D46FFF70BFF28B920462946BDE83840DE
:100CF00000F00AB8204605F1004100F005F8404236
:100D000061EB410138BD00BFD0B50C4B0022064657
:100D10000F46FFF781FCFFF757FF0446FFF702FC81
:100D2000074B0022FFF778FC02460B463046394657
:100D3000FFF7BAFAFFF748FF2146D0BD0000F03DAB
:100D40000000F0412DE9F047089D0C46002B4ED1E4
:100D500094468C458646B2FA82F262D94AB1C2F113
:100D60002003914020FA03F30CFA02FC194300FA25
:100D700002FE4FEA1C471FFA8CF6B1FBF7F44FEA6C
:100D80001E4307FB141143EA014304FB06F1994299
:100D90000AD91CEB030304F1FF3080F01281994261
:100DA00040F20F81023C6344591A1FFA8EF3B1FBE3
:100DB000F7F007FB101143EA014300FB06F69E42E1
:100DC0000AD91CEB030300F1FF3180F0FC809E4246
:100DD00040F2F980634402389B1B40EA0440002142
:100DE0001DB1D3400022C5E90032BDE8F0878B4237
:100DF00005D90DB1C5E9000100210846F5E7B3FAB0
:100E000083F1002946D1A34202D39042C0F0F08082
:100E1000861A64EB03030120002DE6D0C5E90063C8
:100E2000E3E7002A40F09080A1EB0C044FEA1C4855
:100E30001FFA8CF70121B4FBF8F64FEA1E4308FBBA
:100E4000164443EA044307FB06F0984208D91CEB1A
:100E5000030306F1FF3402D2984200F2CD80264609
:100E60001C1A1FFA8EF3B4FBF8F008FB104443EA97
:100E7000044300FB07F79F4208D91CEB030300F172
:100E8000FF3402D29F4200F2B0802046DB1B40EAD2
:100E90000640A5E7C1F120068B4022FA06F71F4362
:100EA00020FA06FC04FA01F343EA0C03F44000FACA
:100EB00001F8380C4FEA1349B4FBF0FE1FFA87FC27
:100EC00000FB1E4449EA04440EFB0CF9A14502FA5A
:100ED00001F20AD93C190EF1FF3A80F08480A14555
:100EE00040F28180AEF1020E3C44A4EB09041FFAEB
:100EF00083F9B4FBF0F300FB134449EA044403FB19
:100F00000CFCA44507D93C1903F1FF3067D2A44576
:100F100065D9023B3C4443EA0E40A0FB0293A4EB9C
:100F20000C049C42CE469C4651D34ED055B1B8EBF2
:100F30000E0364EB0C0404FA06F6CB401E43CC40CF
:100F4000C5E90064002150E7C2F1200320FA03F153
:100F50000CFA02FC24FA03F394400C434FEA1C48B9
:100F600000FA02FE1FFA8CF7B3FBF8F008FB103111
:100F7000230C43EA014300FB07F1994208D91CEB1B
:100F8000030300F1FF362CD299422AD90238634478
:100F90005B1AA4B2B3FBF8F108FB113344EA034433
:100FA00001FB07F3A34208D91CEB040401F1FF364F
:100FB00013D2A34211D902396444E41A41EA004130
:100FC00039E70446F0E6084606E7C845AED2B9EB75
:100FD000020E63EB070C0138A8E73146EDE7034644
:100FE00099E73046D4E7D6467FE7634402384DE7B9
:100FF0000646234608460FE7023E634430E700BF3B
:10100000704700BF90B488B000AFF860B9607A60F4
:101010003B60BB683B617B687B613B68BB61BB6AD3
:10102000FB61FB681C4607F110030FCB84E80F003F
:10103000F8682037BD4690BC704790B585B000AFCA
:101040003C4684E80F004FF07F4002F091F93B6886
:1010500098B27B6899B2BB689AB2FB689BB202F007
:1010600011FB00BF1437BD4690BD90B484B000AFF3
:101070003C4684E80F003B68FA699A4211DB3A6803
:10108000BB681344BA699A420BDC7B687A6A9A425D
:1010900007DB7A68FB6813443A6A9A4201DC012351
:1010A00000E0002318461037BD4690BC704790B54D
:1010B00089B004AF3C4684E80F004FF4A07303935B
:1010C00000230293F0230193002300933B460FCBB0
:1010D000FFF7CBFF0346002B01D0012300E00023E4
:1010E00018461437BD4690BD80B584B000AFF86097
:1010F000B9607A60FB685B687A689A4204D1FB68E1
:101100001B68BA689A4229D0FB680FCBFFF7CFFF64
:101110000346002B03D0FB680FCBFFF78EFFFB6865
:101120007A685A60FB68BA681A60FB680FCBFFF7F1
:10113000BEFF0346002B11D04FF0FF3002F018F92C
:10114000FB681B6898B2FB685B6899B2FB689B6898
:101150009AB2FB68DB689BB202F094FA00BF1037CA
:10116000BD4680BD80B584B000AF78604FF0FF30E1
:1011700002F0FEF80523F0224FF48771782002F088
:1011800081FA0023FB6042E0254AFB681B011344FF
:101190001A687B681A442249FB681B010B44083318
:1011A0001B68D90F0B445B101344002B18DAFB6843
:1011B0001B011B4A98181A4AFB681B011344083389
:1011C0001B68DA0F13445B1003F1F001144AFB684B
:1011D0001B01134404331B681A46FFF785FF13E015
:1011E000FB681B010E4A98180D4AFB681B0113444B
:1011F0001A687B68D1180A4AFB681B011344043340
:101200001B681A46FFF770FFFB680133FB60FB6841
:10121000042BB9DD00BF00BF1037BD4680BD00BF45
:101220000404002090B58BB002AFF860B9607A601A
:101230003B60134B1A68134B1B689A421ADA07F18A
:1012400010003B6800937B68BA68F968FFF7DAFE24
:101250000B4B1B680C4A1B0113441C4607F110037F
:101260000FCB84E80F00064B1B680133044A136060
:10127000012300E0002318462437BD4690BD00BF7F
:10128000A4040020000000205404002090B484B086
:1012900000AF7860154B1B687A689A421BDA144BD2
:1012A0001B687A689A4216DA7B680133FB600FE0AC
:1012B000FB68013B0F4A1B01D1180E4AFB681B015A
:1012C00013440C460FCB84E80F00FB680133FB602E
:1012D000FB68042BECDD054B1B68013B034A1360E4
:1012E00000BF1037BD4690BC704700BFA40400206B
:1012F000000000205404002080B582B000AF06F04A
:101300009FF90246214B1968214B1B68CB1A013308
:1013100092FBF3F101FB03F3D21A1D4B1B6813443C
:101320007B6006F08DF902461A4B19681A4B1B6850
:10133000CB1A013392FBF3F101FB03F3D21A164BE4
:101340001B6813443B60154B1B68002B11DD134BCE
:101350001B68013B124A1B0113441A687B68D018B2
:101360003B68C3F587710F4B1A683B68FFF75AFF5C
:1013700008E03B68C3F587710A4B1A683B68FA209E
:10138000FFF750FF00BF0837BD4680BDAC0400200A
:10139000A8040020B4040020B0040020A40400200D
:1013A00054040020B804002080B584B000AF7860F9
:1013B0000023FB6036E0204AFB681B0113441A68D7
:1013C0007B681A441C49FB681B010B4408331B68EB
:1013D000D90F0B445B101344002B0CDA164AFB6840
:1013E0001B0113440FCBFFF728FEF868FFF74EFFF1
:1013F000FFF782FF13E0FB681B010F4A98180E4AA3
:10140000FB681B0113441A687B68D1180A4AFB6801
:101410001B01134404331B681A46FFF765FEFB6883
:101420000133FB60054B1B68FA689A42C3DB00BFBF
:1014300000BF1037BD4680BD5404002000000020CE
:1014400090B5D7B000AF07F5AC74A4F5A6742060D2
:1014500007F5AC70A0F5A870016007F5AC71A1F5B7
:10146000AA710A6007F5AC72A2F5AC72136007F5B9
:10147000AC73A3F5A47307F5AC72A2F5A872126859
:101480001A6007F5AC73A3F5A47307F5AC72A2F567
:10149000AA7212685A6007F5AC73A3F5A4734FF0F3
:1014A00000029A6007F5AC73A3F5A4730022DA601A
:1014B00007F5AC73A3F5A47307F5AC72A2F5AC7293
:1014C00012681A6107F5AC73A3F5A473D7F8682105
:1014D0005A6107F5AC73A3F5A473D7F86C219A6130
:1014E00007F5AC73A3F5A473D7F87021DA61002374
:1014F000C7F8543118E0D7F854311B01D7F87421DC
:10150000D11807F5AC73A3F5A472D7F854310233A0
:101510001B0113441C460B460FCB84E80F00D7F881
:1015200054310133C7F85431D7F85421D7F870310A
:101530009A42E0DB0023C7F8503118E0D7F8503169
:101540001B01D7F87421D11807F5AC73A3F5A47269
:10155000D7F850310B331B0113441C460B460FCBFD
:1015600084E80F00D7F850310133C7F85031D7F86D
:101570005021D7F870319A42E0DB07F5AC73A3F540
:10158000A6731A6807F5AC73A3F5A4731046194641
:101590004FF4A0731A4607F0A2F807F5AC73A3F551
:1015A000A673186807F5AE77BD4690BD90B583B0B9
:1015B00000AF7860274A7B680B331B0113440FCBC5
:1015C000FFF73BFD234A7B6802331B0113441A6873
:1015D000204B1B681A441F497B680B331B010B44CB
:1015E0001A601C4A7B6802331B01134404331A68D7
:1015F000184B5B681A4417497B680B331B010B447B
:1016000004331A604FF0FF3001F0B2FE114A7B68DC
:101610000B331B0113441B6898B20E4A7B680B33D3
:101620001B01134404331B6899B20A4A7B681B01EF
:101630001344B8331B689AB2064C7B681B012344E1
:10164000BC331B689BB202F01DF800BF0C37BD46CF
:1016500090BD00BFBC04002080B584B000AF7860AE
:101660000A4A7B6853600023FB6005E0F868FFF7D7
:101670009DFFFB680133FB60044BDB69FA689A420B
:10168000F4DB00BF00BF1037BD4680BDBC040020A6
:1016900080B584B000AFF860B96087ED010A284BCF
:1016A000DB68012B22D1264B5B68BA689A4210DBBB
:1016B000234B4FF0FF32DA60214B5B68D7ED017AA4
:1016C000FDEEE77A17EE902A13441846FFF7C4FFA1
:1016D00032E01B4B5B68D7ED017AFDEEE77A17EE3F
:1016E000902A9B1A1846FFF7B7FF25E0144BDB68DA
:1016F000B3F1FF3F1DD1124B5A68FB68053B9A427C
:101700000ADB0F4B0022DA60F868FFF7A5FF0C4BED
:101710004FF000029A600FE0094B5B68D7ED017A49
:10172000FDEEE77A17EE902A13441846FFF794FF70
:1017300002E0F868FFF790FF00BF1037BD4680BD9C
:10174000BC04002090B5ADF5337D04AF07F52970DA
:101750000A2300930A234FF49172DC21FFF752FC15
:1017600007F525700C23009308234FF49672A021EF
:10177000FFF748FC07F521700523009314234FF46D
:101780008C728221FFF73EFC07F51D700F2300933A
:101790000A234FF49B725021FFF734FC07F51970B0
:1017A00006230093082340F21D121421FFF72AFCA0
:1017B000984B1C4607F529730FCB84E80F00954B17
:1017C00003F1100407F525730FCB84E80F00914B4C
:1017D00003F1200407F521730FCB84E80F008D4B34
:1017E00003F1300407F51D730FCB84E80F00894B1C
:1017F00003F1400407F519730FCB84E80F00864B03
:1018000046221A60854BF0221A60854B05221A6029
:10181000844B1E221A60844B46221A60834B00229E
:101820001A600023C7F8B43206E0FFF765FDD7F869
:10183000B4320133C7F8B4327D4B1B68D7F8B422F9
:101840009A42F2DB07F5E27014230093142300227E
:101850000221FFF7D7FB07F52E73A3F5827006234D
:101860000093082314220821FFF7CCFB07F52E7301
:10187000A3F58A702323009318231A220021FFF76F
:10188000C1FB07F52E73A3F592701E230093082366
:101890003D220021FFF7B6FB07F52E73A3F59A70E2
:1018A0001E23009308233D221021FFF7ABFB07F511
:1018B0002E73A3F5A2700623009308231A226FF05B
:1018C0000701FFF79FFB07F52E73A3F5AA70062308
:1018D000009308231A221821FFF794FB07F52E73B3
:1018E000A3F5B2701D230093062320226FF0070199
:1018F000FFF788FB07F52E73A3F5BA701D2300933D
:10190000062320221A21FFF77DFB07F5EA7407F56D
:10191000E2730FCB84E80F0007F52E73A3F58273F3
:1019200007F5F2740FCB84E80F0007F52E73A3F5CB
:101930008A7307F5FA740FCB84E80F0007F52E734E
:10194000A3F5927307F501740FCB84E80F0007F538
:101950002E73A3F59A7307F505740FCB84E80F0077
:1019600007F52E73A3F5A27307F509740FCB84E86E
:101970000F0007F52E73A3F5AA7307F50D740FCBAF
:1019800084E80F0007F52E73A3F5B27307F5117401
:101990000FCB84E80F0007F52E73A3F5BA7307F594
:1019A00015740FCB84E80F00224C384607F5EA7314
:1019B0000393092302934C230193182300935B2381
:1019C000B3225021FFF73CFD07F52E73A3F52E73CC
:1019D000204619464FF4A0731A4606F080FE124BBB
:1019E0001B681E33144A1360134B1A680A4B1B689A
:1019F000D90F0B445B1092FBF3F307EE903AF8EE2D
:101A0000E77A0E4BC3ED007A00BF07F52F77BD468E
:101A100090BD00BF04040020A8040020AC040020F6
:101A2000B8040020B0040020B4040020A404002066
:101A300000000020BC04002000060020FC0500205F
:101A4000B0B586B004AF00237B602FE01C4A7B68F2
:101A50001B0113441A681B4B19681A4B5B690B4432
:101A600001339A4201DD002326E0164B1A68154B1C
:101A70001968144B5B691944124B5868114B5C6828
:101A8000104B9B691C440E4D7B681B012B44039437
:101A90000290019100920FCBFFF7E7FA0346002B6B
:101AA00001D0012308E07B6801337B60064B1B6893
:101AB0007A689A42CADB002318460837BD46B0BD93
:101AC00054040020BC040020A404002080B59CB075
:101AD00000AF78604FF07F4001F04AFC07F10C0343
:101AE0007A680749184606F017FD07F10C031946F6
:101AF000002001F0AFFD00BF7037BD4680BD00BFC4
:101B0000A8BD000880B5E6B000AF07F5CC73A3F51B
:101B1000CA73186007F5CC73A3F5CC7319604FF046
:101B20007F4001F025FC07F59A733149184606F00D
:101B3000F3FC07F59A731946042001F08BFD07F5B5
:101B4000CC73A3F5CA7307F1D0001A68294906F0CF
:101B5000E3FC07F1D0031946042001F07BFD07F5F3
:101B6000CC73A3F5CC731B681B6807F5CC72A2F588
:101B7000CA7212689A4217DD07F108031E49184617
:101B800006F0CAFC07F108031946062001F062FDC1
:101B900007F5CC73A3F5CC731B6807F5CC72A2F5DF
:101BA000CA7212681A6011E007F5CC73A3F5CC7302
:101BB0001B681A6807F108031049184606F0ACFCC8
:101BC00007F108031946062001F044FD07F16C03F4
:101BD0000B49184606F0A0FC07F16C0319460820D3
:101BE00001F038FD00BF07F5CC77BD4680BD00BFD2
:101BF000B4BD0008C8BD0008D8BD0008F8BD000885
:101C000008BE000880B586B000AF02F04DF900F0C4
:101C10009BF800F0B1FA00F007F900F05FFA00F06D
:101C200035F900F073F900F023FA01F0BBFA4FF038
:101C30005041002001F038FB4FF07F4001F0E0FB05
:101C4000FFF780FD00237B6000237B614FF0FF33B3
:101C5000FB603223BB6001233B61364B0022DA601C
:101C60003B69002B42D0F868FFF77CFAF868FFF771
:101C70009BFB0121304803F0C1F90346012B0BD136
:101C80002C4BDB68002B07D12A4B0122DA604FF482
:101C900000512A4803F0E3F9264B1B69C3F587700E
:101CA000244B1A69264B1B681344C3F58773254AD6
:101CB000D2ED007AB0EE670A1946FFF7E9FCFFF7AC
:101CC000BFFE0346002B06D000233B614FF0FF30E0
:101CD00001F096FB02E07B6901337B617869FFF7D5
:101CE000F5FEBB68184602F051F9B9E73B1D1946ED
:101CF0007869FFF707FF00BF01210F4803F07EF965
:101D00000346002BF8D001210B4803F077F9034676
:101D1000012BA5D14FF07F4001F072FB01233B6105
:101D2000FFF710FD00237B614FF40051034803F0DF
:101D300096F995E7BC04002000000240001802401C
:101D400000060020FC05002080B594B000AF07F12C
:101D5000200330220021184606F041FC07F10C0355
:101D600000221A605A609A60DA601A610023BB6030
:101D70002B4B1B6C2A4A43F080531364284B1B6C7B
:101D800003F08053BB60BB6800237B60254B1B685E
:101D9000244A43F440431360224B1B6803F440433E
:101DA0007B607B6801233B624FF480337B620223BC
:101DB000BB634FF48003FB6310233B64B4237B6459
:101DC0000223BB640423FB6407F12003184603F0DD
:101DD00041FE0346002B01D000F074FA03F0EAFD47
:101DE0000346002B01D000F06DFA0F23FB600223A5
:101DF0003B6100237B614FF4A053BB614FF48053E0
:101E0000FB6107F10C030521184604F09BF803461B
:101E1000002B01D000F056FA00BF5037BD4680BD00
:101E2000003802400070004080B500AF154B164AE4
:101E30001A60144B00225A60124B02229A60114B16
:101E40000022DA600F4B00229A620E4B0222DA6205
:101E50000C4B00221A630B4B00225A63094802F014
:101E600089FB0346002B01D000F02CFA0121054824
:101E700002F0DEFC0346002B01D000F023FA00BF85
:101E800080BD00BF3C02002000B0024080B500AF22
:101E90001B4B1C4A1A601A4B1B4A5A60184B0022F3
:101EA0009A60174B0022DA60154B4FF480421A619A
:101EB000134B00225A61124B00229A61104B0022F0
:101EC000DA610F4B00221A620D4803F0E3F8034673
:101ED000002B01D000F0F6F90021094803F01EFAAA
:101EE0000346002B01D000F0EDF90021044803F077
:101EF00051FA0346002B01D000F0E4F900BF80BD89
:101F00007C020020005C0040A086010080B59AB0F1
:101F100000AF07F1340334220021184606F05FFBBE
:101F20003B4634220021184606F059FB4E4B4F4ADF
:101F30001A604D4B00225A604B4B00229A604A4B6C
:101F40000022DA60484B00221A61474B07225A618F
:101F5000454B03229A61444B0E22DA61424B052223
:101F60001A62414BFE225A623F4B40F245129A627E
:101F70003D4B4FF48272DA623B4B40F247121A63D8
:101F8000394B002283F83420374B002283F8352068
:101F9000354B002283F83620334803F03BFA0346E2
:101FA000002B01D000F08EF900237B630023BB637C
:101FB0000023FB6300233B6400237B640023BB649A
:101FC0000023FB644FF480633B6505237B6500239E
:101FD000BB650023FB6500233B66002387F8643064
:101FE000002387F86530002387F8663007F1340353
:101FF000002219461C4803F0DDFA0346002B01D0ED
:1020000000F060F900233B6000237B600023BB608D
:102010000023FB6000233B6100237B610023BB6145
:102020004FF48063FB6105233B6200237B62002346
:10203000BB620023FB62002387F83030002387F85F
:102040003130002387F832303B46012219460648DA
:1020500003F0B0FA0346002B01D000F033F900BFC3
:102060006837BD4680BD00BFD00200200068014037
:1020700080B500AF174B184A1A60164B4FF48272A6
:102080005A60144B00229A60124B0022DA60114B06
:1020900000221A610F4B00225A610E4B4FF400725E
:1020A0009A610C4B0022DA610A4B00221A62094B3A
:1020B00000225A62074B00229A62064B0A22DA6219
:1020C000044804F09CFB0346002B01D000F0FAF812
:1020D00000BF80BD780300200050014080B588B06B
:1020E00000AF3B1D00221A605A609A60DA601A61E4
:1020F0005A619A611E4B1F4A1A601D4B01225A6099
:102100001B4B00229A601A4B0422DA60184B1022F3
:102110001A61174B40225A61154B80229A61144B69
:102120000022DA61124B00221A62114B00225A621D
:102130000F4B00229A6210237B601023BB60102398
:10214000FB6010233B6110237B611023BB611023D4
:10215000FB613B1D1946064804F0C0FA0346002BFC
:1021600001D000F0AFF800BF2037BD4680BD00BFF2
:10217000D0030020400100A080B58EB000AF07F171
:10218000240300221A605A609A60DA601A61002300
:102190003B62494B1B6B484A43F020031363464B99
:1021A0001B6B03F020033B623B6A0023FB61424B45
:1021B0001B6B414A43F0800313633F4B1B6B03F0DF
:1021C0008003FB61FB690023BB613B4B1B6B3A4AFD
:1021D00043F004031363384B1B6B03F00403BB6130
:1021E000BB6900237B61344B1B6B334A43F0010313
:1021F0001363314B1B6B03F001037B617B6900238D
:102200003B612D4B1B6B2C4A43F0020313632A4B9B
:102210001B6B03F002033B613B690023FB60264B11
:102220001B6B254A43F040031363234B1B6B03F0E6
:102230004003FB60FB680023BB601F4B1B6B1E4A07
:1022400043F0100313631C4B1B6B03F01003BB60C4
:10225000BB6800237B60184B1B6B174A43F00803D5
:102260001363154B1B6B03F008037B607B68002234
:102270004FF40051114802F0D9FE04237B62002381
:10228000BB620023FB6207F1240319460C4802F0ED
:10229000FDFB4FF400537B620123BB620023FB6212
:1022A00000233B6307F124031946044802F0EEFBC8
:1022B00000BF3837BD4680BD0038024000180240DC
:1022C0000000024080B400AF72B600BF00BFFDE75F
:1022D00080B483B000AF00237B60104B5B6C0F4A6F
:1022E00043F4804353640D4B5B6C03F480437B6089
:1022F0007B6800233B60094B1B6C084A43F080530A
:102300001364064B1B6C03F080533B603B6800BFBB
:102310000C37BD465DF8047B704700BF00380240B3
:1023200080B485B000AF78607B681B680B4A93422D
:102330000DD10023FB600A4B1B6B094A43F40003D9
:102340001363074B1B6B03F40003FB60FB6800BFC8
:102350001437BD465DF8047B704700BF00B00240F3
:102360000038024080B58AB000AF786007F11403EE
:1023700000221A605A609A60DA601A617B681B68F2
:10238000294A93424BD100233B61284B1B6B274AC0
:1023900043F004031363254B1B6B03F004033B6101
:1023A0003B690023FB60214B1B6B204A43F0010378
:1023B00013631E4B1B6B03F00103FB60FB684FF4C0
:1023C00000737B611223BB610023FB6103233B622B
:1023D00004237B6207F114031946154802F056FBEB
:1023E0004FF480737B611223BB610023FB610323E5
:1023F0003B6204237B6207F1140319460D4802F087
:1024000045FB0023BB60094B1B6C084A43F40003E7
:102410001364064B1B6C03F40003BB60BB6800BF76
:102420002837BD4680BD00BF005C00400038024038
:10243000000802400000024080B59AB000AF78600A
:1024400007F1540300221A605A609A60DA601A6138
:1024500007F1240330220021184606F0C0F87B68FB
:102460001B68814A934240F0FA8008237B62312343
:102470007B630223FB630023BB6407F1240318463C
:1024800003F06CFF0346002B01D0FFF71BFF002376
:102490003B62764B5B6C754A43F080635364734BCD
:1024A0005B6C03F080633B623B6A0023FB616F4B14
:1024B0001B6B6E4A43F0200313636C4B1B6B03F0E2
:1024C0002003FB61FB690023BB61684B1B6B674A00
:1024D00043F001031363654B1B6B03F00103BB6106
:1024E000BB6900237B61614B1B6B604A43F00203B5
:1024F00013635E4B1B6B03F002037B617B6900235C
:102500003B615A4B1B6B594A43F040031363574BD3
:102510001B6B03F040033B613B690023FB60534BA3
:102520001B6B524A43F004031363504B1B6B03F0C5
:102530000403FB60FB680023BB604C4B1B6B4B4AE6
:1025400043F008031363494B1B6B03F00803BB60A4
:10255000BB684FF480637B650223BB650023FB658A
:1025600000233B660E237B6607F15403194640485F
:1025700002F08CFA41F658037B650223BB65002309
:10258000FB6500233B660E237B6607F15403194667
:10259000384802F07BFA03237B650223BB650023E6
:1025A000FB6500233B6609237B6607F1540319464C
:1025B000314802F06BFA4FF470637B650223BB6510
:1025C0000023FB6500233B660E237B6607F1540363
:1025D0001946294802F05AFA4FF40C637B6502232E
:1025E000BB650023FB6500233B660E237B6607F17A
:1025F00054031946214802F049FA4FF498637B6569
:102600000223BB650023FB6500233B660E237B662C
:1026100007F1540319461A4802F038FA48237B653B
:102620000223BB650023FB6500233B660E237B660C
:1026300007F154031946134802F028FA4FF4A05347
:102640007B650223BB650023FB6500233B660923F2
:102650007B6607F154031946084802F017FA00BFD9
:102660006837BD4680BD00BF0068014000380240A9
:102670000014024000000240000402400018024022
:1026800000080240000C024080B58AB000AF7860BC
:1026900007F1140300221A605A609A60DA601A6126
:1026A0007B681B68194A93422CD100233B61184B6D
:1026B0005B6C174A43F480135364154B5B6C03F453
:1026C00080133B613B690023FB60114B1B6B104A7D
:1026D00043F0200313630E4B1B6B03F02003FB60DE
:1026E000FB684FF460737B610223BB610023FB61D5
:1026F00003233B6205237B6207F114031946054857
:1027000002F0C4F900BF2837BD4680BD005001402B
:10271000003802400014024080B582B000AF7860FB
:102720007B681B68084A93420AD1084B5B6C074AD6
:1027300023F4801353644FF46071054802F052FB98
:1027400000BF0837BD4680BD005001400038024040
:102750000014024080B586B000AF3B1D00221A6015
:102760005A609A60DA601A613B4B1B68002B6FD18C
:10277000394B01221A6000233B60384B9B6B374A70
:1027800043F001039363354B9B6B03F001033B6004
:102790003B684FF63F037B600223BB600023FB6076
:1027A00003233B610C237B613B1D19462C4802F03F
:1027B0006DF901237B600223BB600023FB600323D0
:1027C0003B610C237B613B1D1946264802F05EF9F4
:1027D00048F233137B600223BB600023FB600323BA
:1027E0003B610C237B613B1D19461F4802F04EF9EB
:1027F0004FF683737B600223BB600023FB600323DF
:102800003B610C237B613B1D1946184802F03EF9E1
:102810004CF203737B600223BB600023FB60032345
:102820003B610C237B613B1D1946114802F02EF9D8
:1028300060237B600223BB600023FB6003233B61BA
:102840000C237B613B1D19460A4802F01FF900E08A
:1028500000BF1837BD4680BD040600200038024086
:10286000001402400008024000180240001002401C
:10287000000C02400004024080B582B000AF7860D6
:10288000FFF768FF00BF0837BD4680BD80B400AFCA
:1028900000BFFDE780B400AF00BFFDE780B400AF2C
:1028A00000BFFDE780B400AF00BFFDE780B400AF1C
:1028B00000BFFDE780B400AF00BFBD465DF8047BFC
:1028C000704780B400AF00BFBD465DF8047B704721
:1028D00080B400AF00BFBD465DF8047B704780B593
:1028E00000AF01F033FB00BF80BD80B400AF012317
:1028F0001846BD465DF8047B704780B582B000AFD6
:102900007860396005F0BEFE034616221A604FF06B
:10291000FF3318460837BD4680BD80B582B000AF92
:1029200078604FF0FF317868FFF7E7FF00BFFDE701
:1029300080B586B000AFF860B9607A6000237B6133
:102940000AE0AFF300800146BB685A1CBA60CAB205
:102950001A707B6901337B617A697B689A42F0DB8C
:102960007B6818461837BD4680BD80B586B000AF7D
:10297000F860B9607A6000237B6109E0BB685A1C8B
:10298000BA601B781846AFF300807B6901337B6126
:102990007A697B689A42F1DB7B6818461837BD4636
:1029A00080BD80B483B000AF78604FF0FF3318462D
:1029B0000C37BD465DF8047B704780B483B000AF30
:1029C000786039603B684FF400525A600023184623
:1029D0000C37BD465DF8047B704780B483B000AF10
:1029E0007860012318460C37BD465DF8047B7047BC
:1029F00080B485B000AFF860B9607A6000231846F3
:102A00001437BD465DF8047B7047000080B586B082
:102A100000AF7860144A154BD31A7B617B693B6128
:102A2000134B1B68002B02D1114B124A1A60104B3A
:102A30001A687B6813443A699A4207D205F022FE6D
:102A400003460C221A604FF0FF3309E0084B1B6865
:102A5000FB60074B1A687B681344054A1360FB68E8
:102A600018461837BD4680BD000003200004000052
:102A700008060020B009002080B400AF064BD3F850
:102A80008830054A43F47003C2F8883000BFBD4661
:102A90005DF8047B704700BF00ED00E0DFF834D044
:102AA000FFF7EAFF0C480D490D4A002302E0D45815
:102AB000C4500433C4188C42F9D30A4A0A4C002388
:102AC00001E013600432A242FBD305F0E1FDFFF701
:102AD00099F8704700000320000000202002002029
:102AE00094DD000820020020B0090020FEE780B538
:102AF00000AF00F05DFACA2000F05DF9C32000F0DD
:102B000067F9082000F064F9502000F061F9CF2047
:102B100000F051F9002000F05BF9C12000F058F9F5
:102B2000302000F055F9ED2000F045F9642000F068
:102B30004FF9032000F04CF9122000F049F98120F0
:102B400000F046F9E82000F036F9852000F040F961
:102B5000002000F03DF9782000F03AF9CB2000F099
:102B60002AF9392000F034F92C2000F031F9002046
:102B700000F02EF9342000F02BF9022000F028F9A3
:102B8000F72000F018F9202000F022F9EA2000F0E8
:102B900012F9002000F01CF9002000F019F9B12012
:102BA00000F009F9002000F013F91B2000F010F9E3
:102BB000B62000F000F90A2000F00AF9A22000F087
:102BC00007F9C02000F0F7F8102000F001F9C1204B
:102BD00000F0F1F8102000F0FBF8C52000F0EBF851
:102BE000452000F0F5F8152000F0F2F8C72000F0BD
:102BF000E2F8902000F0ECF8362000F0DCF8C82075
:102C000000F0E6F8F22000F0D6F8002000F0E0F83E
:102C1000B02000F0D0F8C22000F0DAF8B62000F0C2
:102C2000CAF80A2000F0D4F8A72000F0D1F8272035
:102C300000F0CEF8042000F0CBF82A2000F0BBF81A
:102C4000002000F0C5F8002000F0C2F8002000F0DD
:102C5000BFF8EF2000F0BCF82B2000F0ACF800200B
:102C600000F0B6F8002000F0B3F8012000F0B0F852
:102C70003F2000F0ADF8F62000F09DF8012000F0B4
:102C8000A7F8002000F0A4F8062000F0A1F82C20FE
:102C900000F091F8C82000F079FA262000F08BF8B7
:102CA000012000F095F8E02000F085F80F2000F0FA
:102CB0008FF8292000F08CF8242000F089F80C20EF
:102CC00000F086F80E2000F083F8092000F080F86C
:102CD0004E2000F07DF8782000F07AF83C2000F0DB
:102CE00077F8092000F074F8132000F071F805203F
:102CF00000F06EF8172000F06BF8112000F068F873
:102D0000002000F065F8E12000F055F8002000F008
:102D10005FF8162000F05CF81B2000F059F8042042
:102D200000F056F8112000F053F8072000F050F89A
:102D3000312000F04DF8332000F04AF8422000F036
:102D400047F8052000F044F80C2000F041F80A2074
:102D500000F03EF8282000F03BF82F2000F038F873
:102D60000F2000F035F8112000F025F8C82000F001
:102D70000DFA292000F01FF82C2000F01CF800BFED
:102D800080BD80B500AF00F013F90321D32000F01F
:102D90002CF803469BB2184680BD80B500AF2920B1
:102DA00000F009F800BF80BD80B500AF282000F01A
:102DB00002F800BF80BD80B582B000AF0346FB7152
:102DC000FB79184600F08EF900BF0837BD4680BD7C
:102DD00080B582B000AF0346FB80FB88184600F048
:102DE0005FF900BF0837BD4680BD80B582B000AF37
:102DF00003460A46FB8013467B717A79FB881146AD
:102E0000184600F091F9034618460837BD4680BDC4
:102E100080B400AFF0231846BD465DF8047B7047D0
:102E200080B400AF4FF4A0731846BD465DF8047B34
:102E30007047000080B500AF194804F097F90346C9
:102E4000002B2BD1164B174A1A60154B1822DA614A
:102E5000134B00229A60124B00225A61104B002241
:102E60001A610F4B00229A620D4B0722DA620C4B5B
:102E70000022DA600A4B00221A62094B4FF40072FA
:102E80009A61074B00225A62054B4FF482725A60D6
:102E9000034800F053F8024803F0B1FC00BF80BDC6
:102EA0000C0600200050014080B584B000AF0346FE
:102EB000FB710023FB73FB799AB2094B1B6807F186
:102EC0000801084803F090FE0346FB73FB7B002BD0
:102ED00001D000F027F8BB6818461037BD4680BD0A
:102EE000400000200C06002080B584B000AF0346EF
:102EF000FB800023FB73094B1B68B91D01220848A6
:102F000003F02EFD0346FB73FB7B002B01D000F08A
:102F100009F800BF1037BD4680BD00BF400000204B
:102F20000C06002080B500AF034803F0F1FCFFF76A
:102F300081FF00BF80BD00BF0C06002080B58AB0B5
:102F400000AF786000233B61174B5B6C164A43F47B
:102F500080135364144B5B6C03F480133B613B6937
:102F60000023FB60104B1B6B0F4A43F020031363DD
:102F70000D4B1B6B03F02003FB60FB684FF4607389
:102F80007B610223BB610223FB6101233B620523BA
:102F90007B6207F114031946044801F077FD00BF76
:102FA0002837BD4680BD00BF0038024000140240F3
:102FB00080B588B000AF364B1B78002B64D1344B02
:102FC00001221A700023BB60324B1B6B314A43F065
:102FD000080313632F4B1B6B03F00803BB60BB6834
:102FE0004FF40053FB6001233B6100237B6102230C
:102FF000BB6107F10C031946274801F047FD002388
:103000007B60244B1B6B234A43F008031363214B63
:103010001B6B03F008037B607B684FF48053FB60FD
:1030200001233B6100237B610223BB6107F10C0399
:103030001946194801F02AFD00233B60154B1B6B14
:10304000144A43F004031363124B1B6B03F0040395
:103050003B603B680423FB6001233B6100237B61F1
:103060000223BB6107F10C0319460C4801F00EFD69
:1030700000220421094801F0D9FF01220421074858
:1030800001F0D4FFFFF7D6FE00BF2037BD4680BD5C
:103090006406002000380240000C02400008024094
:1030A00080B582B000AF0346FB8001224FF400518F
:1030B0000A4801F0BBFF00220421094801F0B6FFD5
:1030C000FB881846FFF710FF01220421044801F095
:1030D000ADFF00BF0837BD4680BD00BF000C0240F9
:1030E0000008024080B582B000AF0346FB710022A9
:1030F0004FF400510A4801F099FF002204210948C9
:1031000001F094FFFB799BB21846FFF7EDFE012218
:103110000421044801F08AFF00BF0837BD4680BD86
:10312000000C02400008024080B584B000AF0346A6
:103130000A46FB8013467B710023FB6000220421BA
:10314000104801F073FF00224FF400510E4801F0C7
:103150006DFFFB881846FFF7C7FE7B791846FFF71F
:10316000A3FEF86001224FF40051074801F05EFF12
:1031700001220421034801F059FFFB68184610376B
:10318000BD4680BD00080240000C024080B582B000
:1031900000AF7860786800F0F9FE00BF0837BD46E0
:1031A00080BD000080B500AF2D4B2E4A1A602C4B1D
:1031B00009225A612A4B01229A61294B1D22DA61A8
:1031C000274B03221A62264B40F20D125A62244BFF
:1031D00040F243129A62224B40F21712DA62204BFD
:1031E00040F247121A631E4B002283F836201C4B14
:1031F000002283F834201A4B002283F835201A4B22
:1032000008221A60184BC0221A61174B04229A61D7
:10321000154B4FF400325A62134803F09FF8104BDD
:1032200000225A600E4B00229A600D4B0022DA6099
:103230000B4B00221A6100F07FFA094802F0EAF80D
:103240000A4B0B4A1A60094B1B681B68984700F031
:1032500061FC084800F0A4F80023184680BD00BFB8
:103260006806002000680140500700209C070020ED
:10327000080000204400002080B500AF034B1B680D
:103280009B6A98470346184680BD00BF9C070020F4
:1032900080B500AF034B1B68DB6A984703461846AE
:1032A00080BD00BF9C07002080B590B000AF0346F2
:1032B0003960FB800023FB60FFF7DEFF03463B61C4
:1032C00000237B61FFF7E4FF0346BB610023FB6142
:1032D0003B683B63FF233B6200237B62002387F84C
:1032E0003C30002387F83D30002387F83E304FF410
:1032F000C063BB620723FB62FFF7BEFF03467B632D
:10330000FFF7C6FF0346BB63FA8807F10C031946B3
:10331000144802F04FF9FA88134913465B0013442E
:103320009B000B4404334FF0FF321A60FA880E49B9
:1033300013465B0013449B000B4408330B4A1A608E
:10334000FA88094913465B0013449B000B444FF075
:103350007F421A60034802F06BF900BF4037BD4658
:1033600080BD00BF680600208407002044000020C4
:1033700080B483B000AF7860074B1A6807491346E2
:103380005B0013449B000B447A681A6000BF0C3743
:10339000BD465DF8047B704780070020840700204D
:1033A00080B483B000AF7860084B1A6808491346B0
:1033B0005B0013449B000B4408337A681A6000BF1B
:1033C0000C37BD465DF8047B704700BF80070020C6
:1033D0008407002080B400AF074B1A6807491346E2
:1033E0005B0013449B000B4408331B681846BD4622
:1033F0005DF8047B704700BF800700208407002031
:10340000F0B585B002AF78600F4B1C680E4B1B689F
:103410000E4A342101FB03F313445C331B681E4640
:10342000FFF72AFF0546FFF733FF02467B6801934B
:103430000023009313462A463146204600F032FB13
:1034400000BF0C37BD46F0BD800700206806002095
:1034500090B583B000AF0346FB800B46BB8013469C
:10346000FB701B4B1A681B4913465B0013449B00FF
:103470000B4408331B681968FB78A3F12000144B38
:103480001A68144C13465B0013449B002344083312
:103490001B68DB8803FB00F00D4B1A680D4C1346CC
:1034A0005B0013449B00234408331B689B8807334D
:1034B000002B00DA0733DB1000FB03F3CA18B988CE
:1034C000FB88184600F034FA00BF0C37BD4690BDAB
:1034D0008007002084070020B0B588B000AFBA6034
:1034E0001A460346FB810B46BB811346FB71012341
:1034F000FB830023BB830023BB6100233B61BB68CC
:103500007B6102E0BB690133BB617B695A1C7A6154
:103510001B78002BF6D1FFF7AFFE01464B4B1A6824
:103520004B4813465B0013449B00034408331B685D
:103530009B88B1FBF3F33B61FB79032B1CD0032B7E
:1035400033DC012B02D0022B19D02EE03A69BB6983
:10355000D11A3E4B1A683E4813465B0013449B0049
:10356000034408331B689B8801FB03F35B089AB292
:10357000FB891344FB831BE0FB89FB8318E03A695A
:10358000BB69D31A99B2314B1A68314813465B00B4
:1035900013449B00034408331B689B8811FB03F30F
:1035A0009AB2FB891344FB8302E0FB89FB8300BFD3
:1035B0001AE0BB681A78B989FB8B1846FFF748FFF9
:1035C000224B1A68224913465B0013449B000B44AC
:1035D00008331B689A88FB8B1344FB83BB68013359
:1035E000BB60BB8B0133BB83BB681B78002B14BF54
:1035F00001230023DCB2FFF73FFEB98B134B1A689F
:10360000134D13465B0013449B002B4408331B6887
:103610009B8801FB03F3C31A99B20C4B1A680C4840
:1036200013465B0013449B00034408331B689B88CC
:1036300099422CBF01230023DBB22340DBB2002BD5
:10364000B7D100BF00BF2037BD46B0BD8007002006
:103650008407002080B582B000AF03463960FB804C
:10366000FFF7B8FE0346DB88FA8812FB03F399B232
:1036700003233A680020FFF72FFF00BF0837BD463D
:1036800080BD00002DE9F04186B002AF0446084637
:1036900011461A462346FB800346BB800B467B80BF
:1036A00013463B800023FB60204B1A6820491346D9
:1036B0005B0013449B000B441B681846FFF758FE41
:1036C0001A4B1B681B4A342101FB03F313445C3380
:1036D0001C68FFF7D1FD0246BB8803FB02F2FB88A2
:1036E00013449B002344FB60104B1C68FD687E88DC
:1036F000B7F80080FFF7C0FD02467B88D11A0B4B5C
:103700001A680B4813465B0013449B0003441B6874
:1037100001930091434632462946204600F0C2F903
:1037200000BF1037BD46BDE8F08100BF8007002014
:10373000840700206806002080B58EB000AF00230B
:103740003B62614B5B6C604A43F0806353645E4B49
:103750005B6C03F080633B623B6A0023FB615A4B66
:103760001B6B594A43F400031363574B1B6B03F461
:103770000003FB61FB690023BB61534B1B6B524A87
:1037800043F001031363504B1B6B03F00103BB6158
:10379000BB6900237B614C4B1B6B4B4A43F002031C
:1037A0001363494B1B6B03F002037B617B690023AE
:1037B0003B61454B1B6B444A43F004031363424B8C
:1037C0001B6B03F004033B613B690023FB603E4B32
:1037D0001B6B3D4A43F0080313633B4B1B6B03F029
:1037E0000803FB60FB680023BB60374B1B6B364A4A
:1037F00043F020031363344B1B6B03F02003BB60C7
:10380000BB6800237B60304B1B6B2F4A43F04003A7
:1038100013632D4B1B6B03F040037B607B6841F609
:1038200058037B620223BB620023FB6202233B63DB
:103830000E237B6307F124031946244801F026F97F
:103840004FF470637B6207F124031946204801F0AE
:103850001DF94FF498637B6207F1240319461D4854
:1038600001F014F948237B6207F1240319461A4832
:1038700001F00CF94FF480637B6207F124031946D1
:10388000164801F003F94FF40C637B6207F124033F
:103890001946134801F0FAF803237B6209237B637E
:1038A00007F1240319460A4801F0F0F84FF4A05339
:1038B0007B6207F124031946094801F0E7F800BFCD
:1038C0003837BD4680BD00BF0038024000000240CE
:1038D0000004024000080240000C024000140240B4
:1038E00000180240B0B582B000AF03463A60FB80DA
:1038F0000B46BB800C4B1B680C4A342101FB03F3C5
:1039000013445C331C68BD88FFF7B6FC034603FB19
:1039100005F2FB8813449B0023441A463B6813605E
:1039200000BF0837BD46B0BD8007002068060020F4
:1039300080B588B000AF03463A60FB800B46BB8081
:103940000023FB610023BB6100237B61534B1A689A
:10395000534913465B0013449B000B4408331B6818
:10396000DB887B824D4B1A684D4913465B0013443C
:103970009B000B4408331B689B883B823B8A0733C0
:10398000002B00DA0733DB10DBB2DB00DAB23B8A54
:10399000DBB2D31AFB730023FB6176E03B8A07336B
:1039A000002B00DA0733DB101A46FB6902FB03F336
:1039B0003A681344BB603B8A0733002B00DA0733B5
:1039C000DB10012B02D0022B04D00CE0BB681B786B
:1039D0007B6116E0BB681B781B02BA680132127863
:1039E00013437B610DE0BB681B781A04BB6801338D
:1039F0001B781B021343BA680232127813437B61AF
:103A000000BF0023BB6136E03A8ABB69D21AFB7B58
:103A10001344013B012202FA03F31A467B69134067
:103A2000002B12D0BB699AB2FB88134498B21B4B8F
:103A30001A681B4913465B0013449B000B441A6829
:103A4000BB881946FFF74EFF12E0BB699AB2FB88AC
:103A5000134498B2114B1A68114913465B00134482
:103A60009B000B4404331A68BB881946FFF73AFFE2
:103A7000BB690133BB613B8ABA699A42C4D3BB8834
:103A80000133BB80FB690133FB617B8AFA699A428F
:103A900084D300BF00BF2037BD4680BD8007002013
:103AA0008407002080B586B002AFF860B9607A6004
:103AB0003B60164B4FF440325A60144B00229A6020
:103AC000124ABB69D360114B114A1A600F4800F0CB
:103AD00051FD0346002B15D1F9680C4800F0A8FEF3
:103AE0000346002B0ED1BA683B6800937B68F969E6
:103AF000064800F088FD0346002B03D10A21034845
:103B000000F0ACFD00BF1037BD4680BD100700209F
:103B100000B0024080B500AF294B2A4A1A602A4BF8
:103B200002221A60284B07225A60274B04229A600F
:103B3000254B0722DA60244B02221A61224B022213
:103B40005A61214B02229A611D4B01225A601C4B83
:103B500000229A601A4B0422DA60194B10221A6173
:103B6000174B40225A61164B4FF4C0729A61144BA6
:103B70000022DA61124B4FF400621A62104B0022ED
:103B80005A620F4B4FF400529A6200210C4800F029
:103B90007FF80D490A4802F0A1FD0346002B03D02F
:103BA0000A4B01221A7002E0084B00221A7040F200
:103BB0006A5000F00DF8054B1B78184680BD00BF19
:103BC000A0070020400100A0D40700204C000020E6
:103BD00080B584B000AF78600023FB602A4B0122DF
:103BE0001A60294B08225A60274B01229A60264B03
:103BF0000022DA604FF6FF722349244802F0A2FD4A
:103C0000012000F0C3F9204B02221A601E4B08224B
:103C10005A601D4B01229A601B4B0022DA604FF65E
:103C2000FF721949194802F08DFD174B03221A60E3
:103C3000154B08225A60144B04229A60124B002242
:103C4000DA604FF6FF721049104802F07BFD4FF426
:103C50000C73FB600C4B04221A600B4B08225A6059
:103C6000094B01229A60FB68074AD3604FF6FF7246
:103C70000549064802F066FD7968044802F097FDA0
:103C800000BF1037BD4680BDF0070020A007002010
:103C900080B590B000AF786039607B68002B00F091
:103CA000EC800023BB62774B9B6B764A43F00103A9
:103CB0009363744B9B6B03F00103BB62BB6A0023ED
:103CC0007B62704B1B6B6F4A43F4800313636D4B35
:103CD0001B6B03F480037B627B6A00233B62694BAE
:103CE0001B6B684A43F002031363664B1B6B03F0C4
:103CF00002033B623B6A0023FB61624B1B6B614A20
:103D000043F0040313635F4B1B6B03F00403FB617D
:103D1000FB690023BB615B4B1B6B5A4A43F00803F2
:103D20001363584B1B6B03F00803BB61BB69002393
:103D30007B61544B1B6B534A43F010031363514B8D
:103D40001B6B03F010037B617B6900233B614D4BD0
:103D50001B6B4C4A43F0200313634A4B1B6B03F06D
:103D600020033B613B690023FB60464B1B6B454ACC
:103D700043F040031363434B1B6B03F04003FB60B2
:103D8000FB6802233B630223BB6300237B630C239A
:103D9000FB636023FB6207F12C0319463A4800F0ED
:103DA00075FE0123FB6207F12C031946374800F02A
:103DB0006DFE4CF20373FB6207F12C031946344885
:103DC00000F064FE4FF68373FB6207F12C03194683
:103DD000304800F05BFE4FF63F03FB6207F12C0317
:103DE00019462D4800F052FE48F23313FB6207F1EA
:103DF0002C031946294800F049FE294B00225A603D
:103E0000274B80229A60264B4FF40072DA60244BD5
:103E10004FF480621A61224B4FF480525A61204B5A
:103E20004FF480429A611E4B0022DA611C4B4FF422
:103E300000321A621A4B00225A62194B03229A620C
:103E4000174B0022DA62164B00221A63144B154AF4
:103E50001A607B68124A1A63114A7B6893631048A0
:103E600000F078FA0E4800F0C7F900220F21382040
:103E700000F08BF9382000F0A4F900BF4037BD46B0
:103E800080BD00BF0038024000040240000802402C
:103E9000000C0240001002400014024000180240D2
:103EA000000800201064024080B500AF0E4B1B6874
:103EB0000D4A43F4007313600B4B1B680A4A43F42A
:103EC00080631360084B1B68074A43F480731360D8
:103ED000032000F04FF90F2000F008F8FEF7F8F982
:103EE0000023184680BD00BF003C024080B582B070
:103EF00000AF7860124B1A68124B1B7819464FF4CA
:103F00007A73B3FBF1F3B2FBF3F3184600F067F9F1
:103F10000346002B01D001230EE07B680F2B0AD84B
:103F2000002279684FF0FF3000F02FF9064A7B68D5
:103F30001360002300E0012318460837BD4680BD0A
:103F400004000020540000205000002080B400AF86
:103F5000064B1B781A46064B1B681344044A136031
:103F600000BFBD465DF8047B704700BF54000020D1
:103F70006008002080B400AF034B1B681846BD46A4
:103F80005DF8047B704700BF6008002080B584B0F6
:103F900000AF7860FFF7EEFFB8607B68FB60FB68FE
:103FA000B3F1FF3F05D00A4B1B781A46FB68134458
:103FB000FB6000BFFFF7DEFF0246BB68D31AFA685A
:103FC0009A42F7D800BF00BF1037BD4680BD00BF82
:103FD0005400002080B485B000AF78607B6803F0A7
:103FE0000703FB600C4BDB68BB60BA684FF6FF034E
:103FF0001340BB60FB681A02BB68134343F0BF6306
:1040000043F40033BB60044ABB68D36000BF14377D
:10401000BD465DF8047B704700ED00E080B400AF62
:10402000044BDB681B0A03F007031846BD465DF826
:10403000047B704700ED00E080B483B000AF03461E
:10404000FB7197F90730002B0BDBFB7903F01F02A4
:10405000074997F907305B09012000FA02F241F89D
:10406000232000BF0C37BD465DF8047B704700BFBE
:1040700000E100E080B483B000AF03463960FB711B
:1040800097F90730002B0ADB3B68DAB20C4997F945
:1040900007301201D2B20B4483F800230AE03B68D8
:1040A000DAB20849FB7903F00F03043B1201D2B2E4
:1040B0000B441A7600BF0C37BD465DF8047B704791
:1040C00000E100E000ED00E080B489B000AFF860EE
:1040D000B9607A60FB6803F00703FB61FB69C3F119
:1040E0000703042B28BF0423BB61FB690433062BA1
:1040F00002D9FB69033B00E000237B614FF0FF32F4
:10410000BB6902FA03F3DA43BB681A407B699A4041
:104110004FF0FF317B6901FA03F3D9437B680B4011
:10412000134318462437BD465DF8047B70470000F2
:1041300080B582B000AF78607B68013BB3F1807FCF
:1041400001D301230FE00A4A7B68013B53600F2132
:104150004FF0FF30FFF78EFF054B00229A60044BB3
:1041600007221A60002318460837BD4680BD00BFED
:1041700010E000E080B582B000AF78607868FFF7AB
:1041800029FF00BF0837BD4680BD80B586B000AFAF
:104190000346B9607A60FB7300237B61FFF73EFF43
:1041A00078617A68B9687869FFF78EFF024697F9F7
:1041B0000F3011461846FFF75DFF00BF1837BD46A8
:1041C00080BD80B582B000AF0346FB7197F9073020
:1041D0001846FFF731FF00BF0837BD4680BD80B5E8
:1041E00082B000AF78607868FFF7A2FF03461846F8
:1041F0000837BD4680BD000080B586B000AF78604E
:1042000000237B61FFF7B6FE38617B68002B01D18C
:10421000012399E07B68022283F835207B68002225
:1042200083F834207B681B681A687B681B6822F05F
:1042300001021A600FE0FFF79DFE02463B69D31AA8
:10424000052B08D97B6820225A657B68032283F8F6
:104250003520032378E07B681B681B6803F00103AB
:10426000002BE8D17B681B681B687B617A69384B3F
:1042700013407B617B685A687B689B681A437B6844
:10428000DB681A437B681B691A437B685B691A43C6
:104290007B689B691A437B68DB691A437B681B6AEE
:1042A00013437A6913437B617B685B6A042B07D1F4
:1042B0007B68DA6A7B681B6B13437A6913437B6103
:1042C0007B681B687A691A607B681B685B697B6125
:1042D0007B6923F007037B617B685B6A7A69134320
:1042E0007B617B685B6A042B17D17B689B6A7A6968
:1042F00013437B617B68DB6A002B0ED0786800F08B
:10430000BDF80346002B08D07B6840225A657B68C5
:10431000012283F83520012316E07B681B687A6947
:104320005A61786800F074F80346FB607B68DB6DC7
:104330003F229A40FB689A607B6800225A657B683E
:10434000012283F83520002318461837BD4680BD6A
:104350003F8010F080B584B000AF78607B68002BA0
:1043600001D1012350E07B6893F83530DBB2022B9A
:1043700001D1022348E07B681B681A687B681B68D0
:1043800022F001021A607B681B6800221A607B68B9
:104390001B6800225A607B681B6800229A607B6859
:1043A0001B680022DA607B681B6800221A617B6848
:1043B0001B6821225A61786800F02AF80346FB60E6
:1043C0007B680022DA637B6800221A647B68002223
:1043D0005A647B6800229A647B680022DA647B68F6
:1043E00000221A657B68DB6D3F229A40FB689A6069
:1043F0007B6800225A657B68002283F835207B6841
:10440000002283F83420002318461037BD4680BDB3
:1044100080B485B000AF78607B681B68DBB2103B6E
:10442000144AA2FB03231B09FB60134AFB681344D5
:104430001B781A467B68DA65FB68032B09D97B6811
:104440001B6823F47F7323F003031A1D7B689A65AE
:1044500007E07B681B6823F47F7323F003037A680B
:1044600093657B689B6D18461437BD465DF8047BE9
:10447000704700BFABAAAAAAF8D8000880B485B0DC
:1044800000AF78600023FB737B689B6ABB607B682E
:104490009B69002B1FD1BB68032B56D801A252F891
:1044A00023F000BFB5440008C7440008B544000825
:1044B0004B4500087B68DB6A03F08073002B46D015
:1044C0000123FB7343E07B68DB6AB3F1C07F40D11B
:1044D0000123FB733DE07B689B69B3F5005F21D14D
:1044E000BB68032B37D801A252F823F0FD44000823
:1044F00003450008FD440008154500080123FB732F
:1045000030E07B68DB6A03F08073002B25D0012349
:10451000FB7322E07B68DB6AB3F1C07F1FD101230C
:10452000FB731CE0BB68022B03D9BB68032B03D0D1
:1045300018E00123FB7315E07B68DB6A03F08073EE
:10454000002B0ED00123FB730BE000BF0AE000BF7D
:1045500008E000BF06E000BF04E000BF02E000BFCB
:1045600000E000BFFB7B18461437BD465DF8047BB6
:10457000704700BF80B582B000AF78607B68002BC9
:1045800001D101233BE07B6893F83930DBB2002B8B
:1045900006D17B68002283F838207868FDF7C0FEDA
:1045A0007B68022283F839207B681B681B6823F430
:1045B00040317B685A687B681B680A431A607B68D5
:1045C0001B685B6B23F007017B689A687B681B683C
:1045D0000A435A637B681B681B6C23F47F5323F0E8
:1045E0003F037A68D1687A6812680B4313647B686A
:1045F0000022DA637B68012283F839200023184601
:104600000837BD4680BD80B586B002AFF860B9609E
:104610007A603B60FB6893F83830012B01D10223AC
:1046200018E0FB68012283F83820FB68022283F837
:104630003920BB6900933B687A68B968F86800F074
:1046400089F9FB681B681A68FB681B6842F0010265
:104650001A60002318461037BD4680BD80B586B06D
:1046600000AF786039600023FB607B681B681B68C3
:1046700003F00103002B56D0FFF77CFC78614BE080
:104680007B681B685B68FB60FB6803F02103002B01
:1046900023D0FB6803F02003002B05D07B68DB6B85
:1046A00043F002027B68DA63FB6803F00103002B2E
:1046B00005D07B68DB6B43F001027B68DA637B68C3
:1046C0001B6821229A607B68042283F839207B686A
:1046D000002283F838200123A5E03B68B3F1FF3FB7
:1046E0001AD0FFF747FC02467B69D31A3A689A4210
:1046F00002D33B68002B0FD17B68DB6B43F02002B9
:104700007B68DA637B68032283F839207B680022A8
:1047100083F83820032386E07B681B685B6803F01E
:104720000203002BACD07B681B68DB6903F020031D
:104730003B617B681B685B6A03F020033A691343A3
:104740003B613B69002B61D0FFF714FC786156E0B8
:104750007B681B685B68FB60FB6803F02903002B28
:104760002ED0FB6803F00803002B05D07B68DB6BC1
:1047700043F004027B68DA63FB6803F02003002B3C
:1047800005D07B68DB6B43F002027B68DA63FB6871
:1047900003F00103002B05D07B68DB6B43F00102C3
:1047A0007B68DA637B681B6829229A607B68042235
:1047B00083F839207B68002283F83820012332E017
:1047C0003B68B3F1FF3F1AD0FFF7D4FB02467B6989
:1047D000D31A3A689A4202D33B68002B0FD17B6808
:1047E000DB6B43F020027B68DA637B68032283F88B
:1047F00039207B68002283F83820032313E07B688C
:104800001B685B6803F01003002BA1D07B681B685A
:1048100012229A607B68012283F839207B6800228B
:1048200083F83820002318461837BD4680BD0000A5
:1048300080B487B000AF786039607B685B68B3F59F
:10484000403F7B6893F83830012B01D1022379E097
:104850007B68012283F838207B68022283F83920A4
:104860003B681B0118337A6813443B613B695A6803
:104870003B699B681B0413437B61354BFB603B69C1
:104880005B680A2B03D03B695B68092B07D13B6946
:10489000DB6803F07F437A6913437B6105E03B6982
:1048A000DB681B067A6913437B613B68002B20D1D0
:1048B0007B681B685A6AFB68DB4302EA03017B687A
:1048C0001B687A690A435A627B681B683A691268F6
:1048D0009A613B695B680A2B03D03B695B68092BD3
:1048E00027D13B69DA687B681B6822F07F429A62B5
:1048F0001FE07B681B68DA69FB68DB4302EA03019F
:104900007B681B687A690A43DA617B681B683A69CD
:1049100012681A613B695B680A2B03D03B695B68CC
:10492000092B06D13B69DA687B681B6822F07F425D
:104930001A627B68012283F839207B68002283F8A1
:104940003820002318461C37BD465DF8047B7047AD
:104950000F0003FF80B48BB000AFF860B9607A60DD
:104960003B60FB681B685B6C03F040413B681A04CA
:104970003B6B1A43FB681B680A435A64FB681B685D
:104980007A68DA63FB685B68B3F5403F74D1BB6853
:1049900003F07F433B62BB6803F47F03FB61BB68AA
:1049A00003F47F43BB61BB68DBB27B61FB689B6840
:1049B000002B08D1BA69FB691A433B6A13437A6931
:1049C00013437B6253E0FB689B68012B06D1BA69F5
:1049D000FB6913437A6913437B6248E0FB689B6879
:1049E000022B11D1FB69DB0CFB61BB699B0ABB612C
:1049F0007B69DB087B61BB695A01FB69DB021343FE
:104A00007A6913437B6232E0FB689B68032B17D102
:104A10003B6ADB0F3B62FB69DB0CFB61BB69DB0ABA
:104A2000BB617B69DB087B61BB695A01FB699B0247
:104A30001A433B6ADB0313437A6913437B6216E034
:104A40003B6A1B0F3B62FB691B0DFB61BB691B0BC8
:104A5000BB617B691B097B61BB691A01FB691B0296
:104A60001A433B6A1B0313437A6913437B62FB6857
:104A70001B687A6A9A6303E0FB681B68BA68DA60AD
:104A800000BF2C37BD465DF8047B704780B489B009
:104A900000AF7860396000237B6100233B61002315
:104AA000BB610023FB6177E10122FB6902FA03F39A
:104AB0007B613B681B687A6913403B613A697B699B
:104AC0009A4240F066813B685B6803F00303012B68
:104AD00005D03B685B6803F00303022B30D17B6891
:104AE0009B68BB61FB695B00032202FA03F3DB43B3
:104AF000BA691340BB613B68DA68FB695B0002FA84
:104B000003F3BA691343BB617B68BA699A607B6837
:104B10005B68BB610122FB6902FA03F3DB43BA69FC
:104B20001340BB613B685B681B0903F00102FB6932
:104B300002FA03F3BA691343BB617B68BA695A602E
:104B40003B685B6803F00303032B17D07B68DB68CB
:104B5000BB61FB695B00032202FA03F3DB43BA6922
:104B60001340BB613B689A68FB695B0002FA03F380
:104B7000BA691343BB617B68BA69DA603B685B68FA
:104B800003F00303022B23D1FB69DA087B680832A8
:104B900053F82230BB61FB6903F007039B000F222F
:104BA00002FA03F3DB43BA691340BB613B681A693D
:104BB000FB6903F007039B0002FA03F3BA6913438E
:104BC000BB61FB69DA087B680832B96943F82210D7
:104BD0007B681B68BB61FB695B00032202FA03F37D
:104BE000DB43BA691340BB613B685B6803F00302B7
:104BF000FB695B0002FA03F3BA691343BB617B688C
:104C0000BA691A603B685B6803F44033002B00F01C
:104C1000C0800023FB60664B5B6C654A43F48043B5
:104C20005364634B5B6C03F48043FB60FB68614A35
:104C3000FB699B08023352F82330BB61FB6903F028
:104C400003039B000F2202FA03F3DB43BA6913400C
:104C5000BB617B68584A934237D07B68574A93427E
:104C600031D07B68564A93422BD07B68554A934299
:104C700025D07B68544A93421FD07B68534A9342A5
:104C800019D07B68524A934213D07B68514A9342B1
:104C90000DD07B68504A934207D07B684F4A9342BD
:104CA00001D1092312E00A2310E008230EE00723B4
:104CB0000CE006230AE0052308E0042306E00323B2
:104CC00004E0022302E0012300E00023FA6902F07D
:104CD000030292009340BA691343BB613549FB69F3
:104CE0009B080233BA6941F823203D4B9B68BB61A6
:104CF0003B69DB43BA691340BB613B685B6803F403
:104D00008013002B03D0BA693B691343BB61344A5B
:104D1000BB699360324BDB68BB613B69DB43BA69BB
:104D20001340BB613B685B6803F40013002B03D0A6
:104D3000BA693B691343BB61294ABB69D360284BFD
:104D40005B68BB613B69DB43BA691340BB613B688D
:104D50005B6803F40033002B03D0BA693B6913434B
:104D6000BB611F4ABB6953601D4B1B68BB613B693C
:104D7000DB43BA691340BB613B685B6803F4803373
:104D8000002B03D0BA693B691343BB61144ABB696A
:104D90001360FB690133FB61FB690F2B7FF684AE67
:104DA00000BF00BF2437BD465DF8047B704700BFDD
:104DB0000038024000380140000002400004024078
:104DC00000080240000C02400010024000140240A3
:104DD00000180240001C0240002002400024024053
:104DE000003C014080B487B000AF78603960002398
:104DF0003B610023FB600023BB6000237B61D9E0A3
:104E000001227B6902FA03F33B613A683B69134074
:104E1000FB60FA683B699A4240F0C9806B4A7B6943
:104E20009B08023352F82330BB607B6903F0030315
:104E30009B000F2202FA03F3BA681340BB607B6841
:104E4000634A934237D07B68624A934231D07B6891
:104E5000614A93422BD07B68604A934225D07B689D
:104E60005F4A93421FD07B685E4A934219D07B68A9
:104E70005D4A934213D07B685C4A93420DD07B68B5
:104E80005B4A934207D07B685A4A934201D1092377
:104E900012E00A2310E008230EE007230CE00623AB
:104EA0000AE0052308E0042306E0032304E00223CC
:104EB00002E0012300E000237A6902F0030292007D
:104EC0009340BA689A4232D14B4B1A68FB68DB4375
:104ED000494913400B60484B5A68FB68DB4346491D
:104EE00013404B60444BDA68FB68DB434249134094
:104EF000CB60414B9A68FB68DB433F4913408B60B2
:104F00007B6903F003039B000F2202FA03F3BB60EB
:104F10002E4A7B699B08023352F82310BB68DA43A0
:104F20002A487B699B080A40023340F823207B68AB
:104F30001A687B695B00032101FA03F3DB431A4023
:104F40007B681A607B69DA087B68083253F82210A4
:104F50007B6903F007039B000F2202FA03F3DB4394
:104F60007A69D20819407B68083243F822107B68BE
:104F7000DA687B695B00032101FA03F3DB431A4023
:104F80007B68DA607B685A6801217B6901FA03F368
:104F9000DB431A407B685A607B689A687B695B00D8
:104FA000032101FA03F3DB431A407B689A607B69B3
:104FB00001337B617B690F2B7FF622AF00BF00BFFF
:104FC0001C37BD465DF8047B704700BF00380140C8
:104FD000000002400004024000080240000C0240B1
:104FE000001002400014024000180240001C024061
:104FF0000020024000240240003C014080B485B003
:1050000000AF78600B467B807B681A697B88134011
:10501000002B02D00123FB7301E00023FB73FB7B19
:1050200018461437BD465DF8047B704780B483B0E2
:1050300000AF78600B467B8013467B707B78002B3B
:1050400003D07A887B689A6103E07B881A047B68C6
:105050009A6100BF0C37BD465DF8047B704780B491
:1050600085B000AF78600B467B807B685B69FB6036
:105070007A88FB6813401A04FB68D9437B880B408D
:105080001A437B689A6100BF1437BD465DF8047B04
:105090007047000080B584B000AF78607B68002B5B
:1050A00001D101232BE17B6893F83D30DBB2002B6B
:1050B00006D17B68002283F83C207868FDF752F91E
:1050C0007B68242283F83D207B681B681A687B6814
:1050D0001B6822F001021A607B681B681A687B68F3
:1050E0001B6842F400421A607B681B681A687B6880
:1050F0001B6822F400421A6001F01CF9F8607B681A
:105100005B68814A934207D8FB68804A934294BF08
:1051100001230023DBB206E0FB687D4A934294BF83
:1051200001230023DBB2002B01D00123E7E0FB6861
:10513000784AA2FB03239B0CBB607B681B685B68FF
:1051400023F03F017B681B68BA680A435A607B689A
:105150001B681B6A23F03F017B685B686A4A9342C5
:1051600002D8BB68013309E0BB684FF4967202FBBA
:1051700003F3694AA2FB03239B0901337A6812688F
:105180000B4313627B681B68DB6923F44F4222F0F8
:10519000FF027B685B685C498B4219D8FB68591E2B
:1051A0007B685B685B00B1FBF3F3591C40F6FC7352
:1051B0000B40002B0AD0FB68591E7B685B685B00C4
:1051C000B1FBF3F30133C3F30B0351E004234FE0CE
:1051D0007B689B68002B11D1FB68581E7B6859685F
:1051E0000B465B000B44B0FBF3F30133C3F30B033B
:1051F000002B0CBF01230023DBB212E0FB68581E1A
:105200007B6859680B469B000B4499000B44B0FB2C
:10521000F3F30133C3F30B03002B0CBF0123002373
:10522000DBB2002B01D0012322E07B689B68002BBE
:105230000ED1FB68581E7B6859680B465B000B4417
:10524000B0FBF3F30133C3F30B0343F400430FE06C
:10525000FB68581E7B6859680B469B000B449900FD
:105260000B44B0FBF3F30133C3F30B0343F44043AC
:10527000796809681343CB617B681B681B6823F05E
:10528000C0017B68DA697B681B6A1A437B681B680C
:105290000A431A607B681B689B6823F4034323F06E
:1052A000FF037A6811697A68D26811437A681268D4
:1052B0000B4393607B681B68DB6823F0FF017B680E
:1052C0005A697B689B691A437B681B680A43DA60EA
:1052D0007B681B681A687B681B6842F001021A60D1
:1052E0007B6800221A647B68202283F83D207B685B
:1052F00000221A637B68002283F83E2000231846B0
:105300001037BD4680BD00BFA08601007F841E000F
:10531000FF083D0083DE1B43D34D621080B483B091
:1053200000AF786039607B6893F83D30DBB2202BAA
:1053300029D17B68242283F83D207B681B681A688A
:105340007B681B6822F001021A607B681B685A6A3E
:105350007B681B6822F010025A627B681B68596ADE
:105360007B681B683A680A435A627B681B681A6844
:105370007B681B6842F001021A607B68202283F878
:105380003D20002300E0022318460C37BD465DF89F
:10539000047B704780B485B000AF7860396000232B
:1053A000FB817B6893F83D30DBB2202B2AD17B68F0
:1053B000242283F83D207B681B681A687B681B6881
:1053C00022F001021A607B681B685B6AFB81FB8923
:1053D00023F00F03FB813B689AB2FB891343FB81E7
:1053E0007B681B68FA895A627B681B681A687B684D
:1053F0001B6842F001021A607B68202283F83D207E
:10540000002300E0022318461437BD465DF8047BF4
:105410007047000080B584B000AF78607B68002BD7
:1054200001D10123BFE07B6893F8A130DBB2002BF0
:1054300006D17B68002283F8A0207868FCF7FCFF87
:105440007B68022283F8A1207B681B689A697B68CD
:105450001B6822F070429A617B681B6899697B68BF
:105460005A687B689B681A437B68DB681A437B68D1
:105470001B691A437B681B680A439A617B681B6837
:1054800099687B681A684A4B0B4093607B685B693C
:105490001B04FB607B681B6899687B689A69FB68E2
:1054A0001A437B681B680A439A607B681B68D9684B
:1054B0007B681A683E4B0B40D3607B68DB691B043A
:1054C000FB607B681B68D9687B681A6AFB681A43B3
:1054D0007B681B680A43DA607B681B6819697B6814
:1054E0001A68334B0B4013617B685B6A1B04FB60DB
:1054F0007B681B6819697B689A6AFB681A437B683A
:105500001B680A431A617B681B6859697B681A68C3
:10551000274B0B4053617B68DB6A1B04FB607B6895
:105520001B6859697B681A6BFB681A437B681B68A8
:105530000A435A617B6893F835301B02FB607B6835
:1055400093F836301B04BB607B681B68DA6A7B68A3
:105550001B6802F07F42DA627B681B68D96ABA680E
:10556000FB6813437A6892F834201A437B681B68FF
:105570000A43DA627B681B685A6B7B681B6842F0DF
:1055800006025A637B681B689A697B681B6842F055
:1055900001029A617B680022C3F8A4207B68012283
:1055A00083F8A120002318461037BD4680BD00BFF8
:1055B00000F800F0B0B584B000AFF860B9607A6070
:1055C000FB6893F8A030012B01D102232CE0FB688B
:1055D000012283F8A020FB68022283F8A120FA6848
:1055E0007B68342101FB03F3134403F13802BB68E9
:1055F00014461D460FCD0FC40FCD0FC40FCD0FC4E1
:105600002B6823607A68B968F86800F03BF8FB689B
:105610001B6801225A62FB68012283F8A120FB6803
:10562000002283F8A020002318461037BD46B0BDE5
:1056300080B483B000AF78607B6893F8A030012B12
:1056400001D1022316E07B68012283F8A0207B6849
:10565000022283F8A1200A4B9B69094A43F4803354
:1056600093617B68012283F8A1207B68002283F884
:10567000A020002318460C37BD465DF8047B704718
:105680000068014080B489B000AFF860B9607A600A
:10569000BB685A68FB681B68DB681B0CC3F30B0311
:1056A00013441B04FB61FB681B681A467B68DB0123
:1056B000134484335B68FA68126811467A68D20131
:1056C0000A44843203F470435360BB681A68FB6871
:1056D0001B68DB681B0CC3F30B0313445A1CFB68E9
:1056E0001B6819467B68DB010B4484331946FB6950
:1056F00013434B60BB68DA68FB681B68DB68C3F365
:105700000A0313441B04FB61FB681B681A467B6891
:10571000DB01134484339B68FA68126811467A6887
:10572000D2010A44843203F470439360BB689A68E0
:10573000FB681B68DB68C3F30A0313445A1CFB684D
:105740001B6819467B68DB010B4484331946FB69EF
:1057500013438B60FB681B681A467B68DB011344AC
:1057600084331B69FA68126811467A68D2010A44C8
:10577000843223F007031361FB681B681A467B68B9
:10578000DB01134484331A46BB681B691361BB6891
:1057900093F831301B02FB61BB6893F832301B0475
:1057A000BB61BB689B691B067B61FB681B681A4673
:1057B0007B68DB01134484339B69FB681B681A46D2
:1057C0007B68DB01134484331A4600239361BB6872
:1057D00093F830301A46FB691A43BB691A43FB68D9
:1057E0001B6819467B68DB010B44843319467B69CF
:1057F00013438B61FB681B681A467B68DB0113440B
:1058000084335B69FA68126811467A68D2010A44E7
:10581000843223F0FF035361FB681B681A467B68E0
:10582000DB01134484331A46BB685B695361FB6830
:105830001B681A467B68DB0113448433DB69FA6812
:10584000126811467A68D2010A44843223F4E06374
:1058500023F00703D361BB68DA69BB681B6AF96888
:10586000096808467968C901014484311343CB6152
:10587000FB681B681A467B68DB01134484339B6A10
:10588000FB681B681A467B68DB01134484331A46A5
:1058900000239362FB681B681A467B68DB01134494
:1058A00084331A46BB685B6A9362BB681B69002B32
:1058B00002D10423FB611BE0BB681B69012B02D1F1
:1058C0000323FB6114E0BB681B69042B0BD0BB688E
:1058D0001B69022B07D0BB681B69032B03D0BB6875
:1058E0001B69072B02D10223FB6101E00123FB614D
:1058F000FB681B681A467B68DB0113448433DB6A50
:10590000FA68126811467A68D2010A44843203F0B8
:10591000E023D362BB689B6AFA6902FB03F31A04B3
:10592000BB685968BB681B68CB1AF96901FB03F3B4
:105930000333F968096808467968C901014484316C
:105940001343CB62FB681B681A467B68DB01134478
:1059500084331B6BFA68126811467A68D2010A44D4
:10596000843223F4FF6323F007031363FB681B688F
:105970001A467B68DB01134484331A46BB68DB6A32
:105980001363FB681B681A467B68DB01134484338E
:105990001B68FA68126811467A68D2010A44843298
:1059A00043F00103136000BF2437BD465DF8047B5C
:1059B0007047000080B582B000AF00237B600023F9
:1059C0003B60204B1B6C1F4A43F0805313641D4BFC
:1059D0001B6C03F080533B603B681B4B01221A6039
:1059E000FEF7C8FA786009E0FEF7C4FA02467B6861
:1059F000D31AB3F57A7F01D903231FE0134B5B68F9
:105A000003F48033B3F5803FEED1114B01221A60CD
:105A1000FEF7B0FA786009E0FEF7ACFA02467B6860
:105A2000D31AB3F57A7F01D9032307E0074B5B68EC
:105A300003F40033B3F5003FEED1002318460837D6
:105A4000BD4680BD0038024040000E42007000405C
:105A500044000E4280B586B000AF78607B68002BB2
:105A600001D1012367E27B681B6803F00103002B6F
:105A700075D0884B9B6803F00C03042B0CD0854B2E
:105A80009B6803F00C03082B12D1824B5B6803F474
:105A90008003B3F5800F0BD17E4B1B6803F40033FA
:105AA000002B5BD07B685B68002B57D1012342E25F
:105AB0007B685B68B3F5803F06D1764B1B68754AFF
:105AC00043F4803313601DE07B685B68B3F5A02F5F
:105AD0000CD1704B1B686F4A43F4802313606D4BED
